{"abi":[{"type":"constructor","inputs":[],"stateMutability":"nonpayable"},{"type":"function","name":"addBoard","inputs":[{"name":"_newBoard","type":"address","internalType":"address"}],"outputs":[],"stateMutability":"nonpayable"},{"type":"function","name":"addMember","inputs":[{"name":"_newMember","type":"address","internalType":"address"},{"name":"_name","type":"string","internalType":"string"}],"outputs":[],"stateMutability":"nonpayable"},{"type":"function","name":"addMultipleBoard","inputs":[{"name":"_newBoardMembers","type":"address[]","internalType":"address[]"}],"outputs":[],"stateMutability":"nonpayable"},{"type":"function","name":"addMultipleMembers","inputs":[{"name":"_newMembers","type":"address[]","internalType":"address[]"},{"name":"_newNames","type":"string[]","internalType":"string[]"}],"outputs":[],"stateMutability":"nonpayable"},{"type":"function","name":"addPresident","inputs":[{"name":"_newPresident","type":"address","internalType":"address"}],"outputs":[],"stateMutability":"nonpayable"},{"type":"function","name":"addVP","inputs":[{"name":"_newVP","type":"address","internalType":"address"}],"outputs":[],"stateMutability":"nonpayable"},{"type":"function","name":"checkIn","inputs":[],"outputs":[],"stateMutability":"nonpayable"},{"type":"function","name":"endMeeting","inputs":[],"outputs":[],"stateMutability":"nonpayable"},{"type":"function","name":"getMeetings","inputs":[],"outputs":[{"name":"","type":"tuple[]","internalType":"struct DAO.Meeting[]","components":[{"name":"blockStarted","type":"uint256","internalType":"uint256"},{"name":"timestampStarted","type":"uint256","internalType":"uint256"},{"name":"topic","type":"string","internalType":"string"},{"name":"attendees","type":"address[]","internalType":"address[]"},{"name":"open","type":"bool","internalType":"bool"}]}],"stateMutability":"view"},{"type":"function","name":"getNumberOfMeetingsAttended","inputs":[{"name":"_member","type":"address","internalType":"address"}],"outputs":[{"name":"","type":"uint256","internalType":"uint256"}],"stateMutability":"view"},{"type":"function","name":"getProposals","inputs":[],"outputs":[{"name":"","type":"tuple[]","internalType":"struct DAO.Proposal[]","components":[{"name":"proposal","type":"string","internalType":"string"},{"name":"timeCreated","type":"uint256","internalType":"uint256"},{"name":"startBlock","type":"uint256","internalType":"uint256"},{"name":"endBlock","type":"uint256","internalType":"uint256"},{"name":"votesFor","type":"uint256","internalType":"uint256"},{"name":"passed","type":"bool","internalType":"bool"},{"name":"index","type":"uint256","internalType":"uint256"}]}],"stateMutability":"view"},{"type":"function","name":"isCheckedIn","inputs":[{"name":"_member","type":"address","internalType":"address"}],"outputs":[{"name":"","type":"bool","internalType":"bool"}],"stateMutability":"view"},{"type":"function","name":"isMeetingOpen","inputs":[],"outputs":[{"name":"","type":"bool","internalType":"bool"}],"stateMutability":"view"},{"type":"function","name":"isMember","inputs":[{"name":"_member","type":"address","internalType":"address"}],"outputs":[{"name":"","type":"bool","internalType":"bool"}],"stateMutability":"view"},{"type":"function","name":"isPresident","inputs":[{"name":"_president","type":"address","internalType":"address"}],"outputs":[{"name":"","type":"bool","internalType":"bool"}],"stateMutability":"view"},{"type":"function","name":"membersList","inputs":[],"outputs":[{"name":"","type":"tuple[]","internalType":"struct DAO.Member[]","components":[{"name":"memberAddress","type":"address","internalType":"address"},{"name":"name","type":"string","internalType":"string"}]}],"stateMutability":"view"},{"type":"function","name":"newMeeting","inputs":[{"name":"_topic","type":"string","internalType":"string"}],"outputs":[],"stateMutability":"nonpayable"},{"type":"function","name":"newProposal","inputs":[{"name":"_proposal","type":"string","internalType":"string"}],"outputs":[],"stateMutability":"nonpayable"},{"type":"function","name":"removeBoard","inputs":[{"name":"_board","type":"address","internalType":"address"}],"outputs":[],"stateMutability":"nonpayable"},{"type":"function","name":"removeMember","inputs":[{"name":"_member","type":"address","internalType":"address"}],"outputs":[],"stateMutability":"nonpayable"},{"type":"function","name":"removePresident","inputs":[{"name":"_president","type":"address","internalType":"address"}],"outputs":[],"stateMutability":"nonpayable"},{"type":"function","name":"removeVP","inputs":[{"name":"_vp","type":"address","internalType":"address"}],"outputs":[],"stateMutability":"nonpayable"},{"type":"function","name":"setFaucet","inputs":[{"name":"_faucet","type":"address","internalType":"address"}],"outputs":[],"stateMutability":"nonpayable"},{"type":"function","name":"voteForProposal","inputs":[{"name":"_index","type":"uint256","internalType":"uint256"}],"outputs":[],"stateMutability":"nonpayable"},{"type":"event","name":"NewPresident","inputs":[{"name":"newPresident","type":"address","indexed":false,"internalType":"address"}],"anonymous":false},{"type":"event","name":"NewProposal","inputs":[{"name":"proposal","type":"string","indexed":false,"internalType":"string"},{"name":"index","type":"uint256","indexed":false,"internalType":"uint256"}],"anonymous":false},{"type":"event","name":"NewVP","inputs":[{"name":"newVP","type":"address","indexed":false,"internalType":"address"}],"anonymous":false},{"type":"event","name":"ProposalPassed","inputs":[{"name":"index","type":"uint256","indexed":false,"internalType":"uint256"}],"anonymous":false},{"type":"error","name":"AddressCantBeZero","inputs":[]},{"type":"error","name":"AlreadyBoard","inputs":[]},{"type":"error","name":"AlreadyMember","inputs":[]},{"type":"error","name":"AlreadyPresident","inputs":[]},{"type":"error","name":"AlreadyVP","inputs":[]},{"type":"error","name":"AlreadyVoted","inputs":[]},{"type":"error","name":"FaucetAlreadySet","inputs":[]},{"type":"error","name":"MeetingAlreadyOpen","inputs":[]},{"type":"error","name":"MeetingNotOpen","inputs":[]},{"type":"error","name":"MustHaveOnePresident","inputs":[]},{"type":"error","name":"NamesMustEqualAddresses","inputs":[]},{"type":"error","name":"NotBoard","inputs":[]},{"type":"error","name":"NotMember","inputs":[]},{"type":"error","name":"NotPresident","inputs":[]},{"type":"error","name":"NotVP","inputs":[]},{"type":"error","name":"OnlyMember","inputs":[]},{"type":"error","name":"OnlyPresident","inputs":[]},{"type":"error","name":"ProposalAlreadyPassed","inputs":[]},{"type":"error","name":"ProposalEnded","inputs":[]}],"bytecode":{"object":"0x608060405260008060006101000a81548173ffffffffffffffffffffffffffffffffffffffff021916908373ffffffffffffffffffffffffffffffffffffffff1602179055503480156200005257600080fd5b5060018060003373ffffffffffffffffffffffffffffffffffffffff1673ffffffffffffffffffffffffffffffffffffffff16815260200190815260200160002060006101000a81548160ff0219169083151502179055506001600281905550600560086000828254620000c7919062000146565b925050819055507fffc7a5dffad5a52afd8a72e2b4b51c09008940c99cf0d84ce9e72ce42e8dbc3233604051620000ff9190620001c6565b60405180910390a1620001e3565b6000819050919050565b7f4e487b7100000000000000000000000000000000000000000000000000000000600052601160045260246000fd5b600062000153826200010d565b915062000160836200010d565b92508282019050808211156200017b576200017a62000117565b5b92915050565b600073ffffffffffffffffffffffffffffffffffffffff82169050919050565b6000620001ae8262000181565b9050919050565b620001c081620001a1565b82525050565b6000602082019050620001dd6000830184620001b5565b92915050565b61432580620001f36000396000f3fe608060405234801561001057600080fd5b50600436106101585760003560e01c806362564c48116100c35780639eddefd71161007c5780639eddefd714610371578063a230c5241461038f578063c127c247146103bf578063d8b31c77146103db578063dd5042f4146103f7578063ec3d854b1461041557610158565b806362564c48146102c55780636f195d09146102e357806370af1dd2146102ff5780638d2bd27b146103095780638f683b7b14610325578063957f13f41461035557610158565b8063323e39a211610115578063323e39a214610209578063428dde8714610239578063457c09ba146102555780634f24186a14610271578063506e84811461028d578063608992a5146102a957610158565b8063045c6ce01461015d5780630477575a146101795780630b1ca49a1461019757806310a1c573146101b3578063183ff085146101cf57806330cf203a146101d9575b600080fd5b61017760048036038101906101729190613203565b610431565b005b61018161094c565b60405161018e9190613519565b60405180910390f35b6101b160048036038101906101ac9190613567565b610afa565b005b6101cd60048036038101906101c89190613567565b610dea565b005b6101d7610f6f565b005b6101f360048036038101906101ee9190613567565b61126a565b60405161020091906135a3565b60405180910390f35b610223600480360381019061021e9190613567565b611351565b60405161023091906135cd565b60405180910390f35b610253600480360381019061024e9190613567565b61139a565b005b61026f600480360381019061026a9190613567565b611515565b005b61028b6004803603810190610286919061364d565b6116d1565b005b6102a760048036038101906102a2919061364d565b6119c9565b005b6102c360048036038101906102be9190613746565b611bd8565b005b6102cd611f65565b6040516102da9190613925565b60405180910390f35b6102fd60048036038101906102f89190613567565b6120a3565b005b610307612272565b005b610323600480360381019061031e9190613947565b612394565b005b61033f600480360381019061033a9190613567565b612569565b60405161034c91906135a3565b60405180910390f35b61036f600480360381019061036a9190613567565b6125bf565b005b61037961273a565b60405161038691906135a3565b60405180910390f35b6103a960048036038101906103a49190613567565b612785565b6040516103b691906135a3565b60405180910390f35b6103d960048036038101906103d49190613ac4565b6128e8565b005b6103f560048036038101906103f09190613567565b612b78565b005b6103ff612cc4565b60405161040c9190613c1f565b60405180910390f35b61042f600480360381019061042a9190613567565b612e0b565b005b600560003373ffffffffffffffffffffffffffffffffffffffff1673ffffffffffffffffffffffffffffffffffffffff16815260200190815260200160002060009054906101000a900460ff16806104d25750600460003373ffffffffffffffffffffffffffffffffffffffff1673ffffffffffffffffffffffffffffffffffffffff16815260200190815260200160002060009054906101000a900460ff165b806105265750600360003373ffffffffffffffffffffffffffffffffffffffff1673ffffffffffffffffffffffffffffffffffffffff16815260200190815260200160002060009054906101000a900460ff165b8061057a5750600160003373ffffffffffffffffffffffffffffffffffffffff1673ffffffffffffffffffffffffffffffffffffffff16815260200190815260200160002060009054906101000a900460ff165b15610917576000600b828154811061059557610594613c41565b5b9060005260206000209060070201905043816003015410156105e3576040517f48f2885500000000000000000000000000000000000000000000000000000000815260040160405180910390fd5b600c600083815260200190815260200160002060003373ffffffffffffffffffffffffffffffffffffffff1673ffffffffffffffffffffffffffffffffffffffff16815260200190815260200160002060009054906101000a900460ff1615610678576040517f7c9a1cf900000000000000000000000000000000000000000000000000000000815260040160405180910390fd5b8060050160009054906101000a900460ff16156106c1576040517fcb97021200000000000000000000000000000000000000000000000000000000815260040160405180910390fd5b600160003373ffffffffffffffffffffffffffffffffffffffff1673ffffffffffffffffffffffffffffffffffffffff16815260200190815260200160002060009054906101000a900460ff16156107345760058160040160008282546107289190613c9f565b92505081905550610839565b600360003373ffffffffffffffffffffffffffffffffffffffff1673ffffffffffffffffffffffffffffffffffffffff16815260200190815260200160002060009054906101000a900460ff16156107a757600381600401600082825461079b9190613c9f565b92505081905550610838565b600460003373ffffffffffffffffffffffffffffffffffffffff1673ffffffffffffffffffffffffffffffffffffffff16815260200190815260200160002060009054906101000a900460ff161561081a57600281600401600082825461080e9190613c9f565b92505081905550610837565b600181600401600082825461082f9190613c9f565b925050819055505b5b5b6001600c600084815260200190815260200160002060003373ffffffffffffffffffffffffffffffffffffffff1673ffffffffffffffffffffffffffffffffffffffff16815260200190815260200160002060006101000a81548160ff02191690831515021790555060026008546108b19190613d02565b816004015411156109115760018160050160006101000a81548160ff0219169083151502179055507fe36f8b7448daff4a52e2945db0d1d7a436279cc1d527a45c27835dcbd27f336d8260405161090891906135cd565b60405180910390a15b50610949565b6040517f4a0f278800000000000000000000000000000000000000000000000000000000815260040160405180910390fd5b50565b60606009805480602002602001604051908101604052809291908181526020016000905b82821015610af157838290600052602060002090600502016040518060a001604052908160008201548152602001600182015481526020016002820180546109b790613d62565b80601f01602080910402602001604051908101604052809291908181526020018280546109e390613d62565b8015610a305780601f10610a0557610100808354040283529160200191610a30565b820191906000526020600020905b815481529060010190602001808311610a1357829003601f168201915b5050505050815260200160038201805480602002602001604051908101604052809291908181526020018280548015610abe57602002820191906000526020600020905b8160009054906101000a900473ffffffffffffffffffffffffffffffffffffffff1673ffffffffffffffffffffffffffffffffffffffff1681526020019060010190808311610a74575b505050505081526020016004820160009054906101000a900460ff16151515158152505081526020019060010190610970565b50505050905090565b600160003373ffffffffffffffffffffffffffffffffffffffff1673ffffffffffffffffffffffffffffffffffffffff16815260200190815260200160002060009054906101000a900460ff16610b7d576040517faf14e1e600000000000000000000000000000000000000000000000000000000815260040160405180910390fd5b600560008273ffffffffffffffffffffffffffffffffffffffff1673ffffffffffffffffffffffffffffffffffffffff16815260200190815260200160002060009054906101000a900460ff16610c00576040517f291fc44200000000000000000000000000000000000000000000000000000000815260040160405180910390fd5b6000600560008373ffffffffffffffffffffffffffffffffffffffff1673ffffffffffffffffffffffffffffffffffffffff16815260200190815260200160002060006101000a81548160ff021916908315150217905550600160086000828254610c6b9190613d93565b9250508190555060066001600680549050610c869190613d93565b81548110610c9757610c96613c41565b5b90600052602060002090600202016006600760008473ffffffffffffffffffffffffffffffffffffffff1673ffffffffffffffffffffffffffffffffffffffff1681526020019081526020016000205481548110610cf857610cf7613c41565b5b90600052602060002090600202016000820160009054906101000a900473ffffffffffffffffffffffffffffffffffffffff168160000160006101000a81548173ffffffffffffffffffffffffffffffffffffffff021916908373ffffffffffffffffffffffffffffffffffffffff16021790555060018201816001019081610d819190613f89565b509050506006805480610d9757610d96614071565b5b6001900381819060005260206000209060020201600080820160006101000a81549073ffffffffffffffffffffffffffffffffffffffff0219169055600182016000610de391906130d2565b5050905550565b600160003373ffffffffffffffffffffffffffffffffffffffff1673ffffffffffffffffffffffffffffffffffffffff16815260200190815260200160002060009054906101000a900460ff16610e6d576040517faf14e1e600000000000000000000000000000000000000000000000000000000815260040160405180910390fd5b600460008273ffffffffffffffffffffffffffffffffffffffff1673ffffffffffffffffffffffffffffffffffffffff16815260200190815260200160002060009054906101000a900460ff1615610ef1576040517f9a2ea08400000000000000000000000000000000000000000000000000000000815260040160405180910390fd5b610efa81613044565b6001600460008373ffffffffffffffffffffffffffffffffffffffff1673ffffffffffffffffffffffffffffffffffffffff16815260200190815260200160002060006101000a81548160ff021916908315150217905550600260086000828254610f659190613c9f565b9250508190555050565b600560003373ffffffffffffffffffffffffffffffffffffffff1673ffffffffffffffffffffffffffffffffffffffff16815260200190815260200160002060009054906101000a900460ff16806110105750600460003373ffffffffffffffffffffffffffffffffffffffff1673ffffffffffffffffffffffffffffffffffffffff16815260200190815260200160002060009054906101000a900460ff165b806110645750600360003373ffffffffffffffffffffffffffffffffffffffff1673ffffffffffffffffffffffffffffffffffffffff16815260200190815260200160002060009054906101000a900460ff165b806110b85750600160003373ffffffffffffffffffffffffffffffffffffffff1673ffffffffffffffffffffffffffffffffffffffff16815260200190815260200160002060009054906101000a900460ff165b15611236576000600960016009805490506110d39190613d93565b815481106110e4576110e3613c41565b5b906000526020600020906005020190508060040160009054906101000a900460ff1661113c576040517f41e6a24300000000000000000000000000000000000000000000000000000000815260040160405180910390fd5b80600301339080600181540180825580915050600190039060005260206000200160009091909190916101000a81548173ffffffffffffffffffffffffffffffffffffffff021916908373ffffffffffffffffffffffffffffffffffffffff1602179055506001600a60003373ffffffffffffffffffffffffffffffffffffffff1673ffffffffffffffffffffffffffffffffffffffff168152602001908152602001600020546111ed9190613c9f565b600a60003373ffffffffffffffffffffffffffffffffffffffff1673ffffffffffffffffffffffffffffffffffffffff1681526020019081526020016000208190555050611268565b6040517f4a0f278800000000000000000000000000000000000000000000000000000000815260040160405180910390fd5b565b600080600960016009805490506112819190613d93565b8154811061129257611291613c41565b5b9060005260206000209060050201905060005b8160030180549050811015611345578373ffffffffffffffffffffffffffffffffffffffff168260030182815481106112e1576112e0613c41565b5b9060005260206000200160009054906101000a900473ffffffffffffffffffffffffffffffffffffffff1673ffffffffffffffffffffffffffffffffffffffff16036113325760019250505061134c565b808061133d906140a0565b9150506112a5565b5060009150505b919050565b6000600a60008373ffffffffffffffffffffffffffffffffffffffff1673ffffffffffffffffffffffffffffffffffffffff168152602001908152602001600020549050919050565b600160003373ffffffffffffffffffffffffffffffffffffffff1673ffffffffffffffffffffffffffffffffffffffff16815260200190815260200160002060009054906101000a900460ff1661141d576040517faf14e1e600000000000000000000000000000000000000000000000000000000815260040160405180910390fd5b600360008273ffffffffffffffffffffffffffffffffffffffff1673ffffffffffffffffffffffffffffffffffffffff16815260200190815260200160002060009054906101000a900460ff166114a0576040517f081cc5ac00000000000000000000000000000000000000000000000000000000815260040160405180910390fd5b6000600360008373ffffffffffffffffffffffffffffffffffffffff1673ffffffffffffffffffffffffffffffffffffffff16815260200190815260200160002060006101000a81548160ff02191690831515021790555060036008600082825461150b9190613d93565b9250508190555050565b600160003373ffffffffffffffffffffffffffffffffffffffff1673ffffffffffffffffffffffffffffffffffffffff16815260200190815260200160002060009054906101000a900460ff16611598576040517faf14e1e600000000000000000000000000000000000000000000000000000000815260040160405180910390fd5b600360008273ffffffffffffffffffffffffffffffffffffffff1673ffffffffffffffffffffffffffffffffffffffff16815260200190815260200160002060009054906101000a900460ff161561161c576040517fc701ce6800000000000000000000000000000000000000000000000000000000815260040160405180910390fd5b61162581613044565b6001600360008373ffffffffffffffffffffffffffffffffffffffff1673ffffffffffffffffffffffffffffffffffffffff16815260200190815260200160002060006101000a81548160ff0219169083151502179055506003600860008282546116909190613c9f565b925050819055507f2118350a1fc2ad62657a43f98a161bd93d736cc52eaacee589d4fcc2ee3ac1dd816040516116c691906140f7565b60405180910390a150565b600560003373ffffffffffffffffffffffffffffffffffffffff1673ffffffffffffffffffffffffffffffffffffffff16815260200190815260200160002060009054906101000a900460ff16806117725750600460003373ffffffffffffffffffffffffffffffffffffffff1673ffffffffffffffffffffffffffffffffffffffff16815260200190815260200160002060009054906101000a900460ff165b806117c65750600360003373ffffffffffffffffffffffffffffffffffffffff1673ffffffffffffffffffffffffffffffffffffffff16815260200190815260200160002060009054906101000a900460ff165b8061181a5750600160003373ffffffffffffffffffffffffffffffffffffffff1673ffffffffffffffffffffffffffffffffffffffff16815260200190815260200160002060009054906101000a900460ff165b1561199357600b6040518060e0016040528084848080601f016020809104026020016040519081016040528093929190818152602001838380828437600081840152601f19601f82011690508083019250505050505050815260200142815260200143815260200162093a80436118919190613c9f565b815260200160008152602001600015158152602001600b80549050815250908060018154018082558091505060019003906000526020600020906007020160009091909190915060008201518160000190816118ed9190614112565b506020820151816001015560408201518160020155606082015181600301556080820151816004015560a08201518160050160006101000a81548160ff02191690831515021790555060c0820151816006015550507f771bd5157dc62782f1dc1d883d325ee20636daf881286a9f2d934c3ec3392e8a82826001600b805490506119779190613d93565b60405161198693929190614222565b60405180910390a16119c5565b6040517f4a0f278800000000000000000000000000000000000000000000000000000000815260040160405180910390fd5b5050565b600160003373ffffffffffffffffffffffffffffffffffffffff1673ffffffffffffffffffffffffffffffffffffffff16815260200190815260200160002060009054906101000a900460ff16611a4c576040517faf14e1e600000000000000000000000000000000000000000000000000000000815260040160405180910390fd5b60006009805490501115611acf57600115156009808054905081548110611a7657611a75613c41565b5b906000526020600020906005020160040160009054906101000a900460ff16151503611ace576040517fbe04015f00000000000000000000000000000000000000000000000000000000815260040160405180910390fd5b5b606060096040518060a0016040528043815260200142815260200185858080601f016020809104026020016040519081016040528093929190818152602001838380828437600081840152601f19601f82011690508083019250505050505050815260200183815260200160011515815250908060018154018082558091505060019003906000526020600020906005020160009091909190915060008201518160000155602082015181600101556040820151816002019081611b939190614112565b506060820151816003019080519060200190611bb0929190613112565b5060808201518160040160006101000a81548160ff0219169083151502179055505050505050565b600160003373ffffffffffffffffffffffffffffffffffffffff1673ffffffffffffffffffffffffffffffffffffffff16815260200190815260200160002060009054906101000a900460ff16611c5b576040517faf14e1e600000000000000000000000000000000000000000000000000000000815260040160405180910390fd5b818190508484905014611c9a576040517f55a3ae2800000000000000000000000000000000000000000000000000000000815260040160405180910390fd5b60005b84849050811015611f5e576000858583818110611cbd57611cbc613c41565b5b9050602002016020810190611cd29190613567565b90506000848484818110611ce957611ce8613c41565b5b9050602002810190611cfb9190614263565b8080601f016020809104026020016040519081016040528093929190818152602001838380828437600081840152601f19601f820116905080830192505050505050509050600560008373ffffffffffffffffffffffffffffffffffffffff1673ffffffffffffffffffffffffffffffffffffffff16815260200190815260200160002060009054906101000a900460ff1615611dc4576040517f810074be00000000000000000000000000000000000000000000000000000000815260040160405180910390fd5b611dcd82613044565b6001600560008473ffffffffffffffffffffffffffffffffffffffff1673ffffffffffffffffffffffffffffffffffffffff16815260200190815260200160002060006101000a81548160ff021916908315150217905550600160086000828254611e389190613c9f565b92505081905550600660405180604001604052808473ffffffffffffffffffffffffffffffffffffffff16815260200183815250908060018154018082558091505060019003906000526020600020906002020160009091909190915060008201518160000160006101000a81548173ffffffffffffffffffffffffffffffffffffffff021916908373ffffffffffffffffffffffffffffffffffffffff1602179055506020820151816001019081611ef19190614112565b5050506001600680549050611f069190613d93565b600760008473ffffffffffffffffffffffffffffffffffffffff1673ffffffffffffffffffffffffffffffffffffffff1681526020019081526020016000208190555050508080611f56906140a0565b915050611c9d565b5050505050565b6060600b805480602002602001604051908101604052809291908181526020016000905b8282101561209a57838290600052602060002090600702016040518060e0016040529081600082018054611fbc90613d62565b80601f0160208091040260200160405190810160405280929190818152602001828054611fe890613d62565b80156120355780601f1061200a57610100808354040283529160200191612035565b820191906000526020600020905b81548152906001019060200180831161201857829003601f168201915b50505050508152602001600182015481526020016002820154815260200160038201548152602001600482015481526020016005820160009054906101000a900460ff1615151515815260200160068201548152505081526020019060010190611f89565b50505050905090565b600160003373ffffffffffffffffffffffffffffffffffffffff1673ffffffffffffffffffffffffffffffffffffffff16815260200190815260200160002060009054906101000a900460ff16612126576040517faf14e1e600000000000000000000000000000000000000000000000000000000815260040160405180910390fd5b600160008273ffffffffffffffffffffffffffffffffffffffff1673ffffffffffffffffffffffffffffffffffffffff16815260200190815260200160002060009054906101000a900460ff166121a9576040517f099048a600000000000000000000000000000000000000000000000000000000815260040160405180910390fd5b6001600254036121e5576040517fab76db8b00000000000000000000000000000000000000000000000000000000815260040160405180910390fd5b6000600160008373ffffffffffffffffffffffffffffffffffffffff1673ffffffffffffffffffffffffffffffffffffffff16815260200190815260200160002060006101000a81548160ff02191690831515021790555060026000815480929190612250906142c6565b91905055506005600860008282546122689190613d93565b9250508190555050565b600160003373ffffffffffffffffffffffffffffffffffffffff1673ffffffffffffffffffffffffffffffffffffffff16815260200190815260200160002060009054906101000a900460ff166122f5576040517faf14e1e600000000000000000000000000000000000000000000000000000000815260040160405180910390fd5b60006009600160098054905061230b9190613d93565b8154811061231c5761231b613c41565b5b906000526020600020906005020190508060040160009054906101000a900460ff16612374576040517f41e6a24300000000000000000000000000000000000000000000000000000000815260040160405180910390fd5b60008160040160006101000a81548160ff02191690831515021790555050565b600160003373ffffffffffffffffffffffffffffffffffffffff1673ffffffffffffffffffffffffffffffffffffffff16815260200190815260200160002060009054906101000a900460ff16612417576040517faf14e1e600000000000000000000000000000000000000000000000000000000815260040160405180910390fd5b60005b8282905081101561256457600083838381811061243a57612439613c41565b5b905060200201602081019061244f9190613567565b9050600460008273ffffffffffffffffffffffffffffffffffffffff1673ffffffffffffffffffffffffffffffffffffffff16815260200190815260200160002060009054906101000a900460ff16156124d5576040517f9a2ea08400000000000000000000000000000000000000000000000000000000815260040160405180910390fd5b6124de81613044565b6001600460008373ffffffffffffffffffffffffffffffffffffffff1673ffffffffffffffffffffffffffffffffffffffff16815260200190815260200160002060006101000a81548160ff0219169083151502179055506002600860008282546125499190613c9f565b9250508190555050808061255c906140a0565b91505061241a565b505050565b6000600160008373ffffffffffffffffffffffffffffffffffffffff1673ffffffffffffffffffffffffffffffffffffffff16815260200190815260200160002060009054906101000a900460ff169050919050565b600160003373ffffffffffffffffffffffffffffffffffffffff1673ffffffffffffffffffffffffffffffffffffffff16815260200190815260200160002060009054906101000a900460ff16612642576040517faf14e1e600000000000000000000000000000000000000000000000000000000815260040160405180910390fd5b600460008273ffffffffffffffffffffffffffffffffffffffff1673ffffffffffffffffffffffffffffffffffffffff16815260200190815260200160002060009054906101000a900460ff166126c5576040517f169fc17200000000000000000000000000000000000000000000000000000000815260040160405180910390fd5b6000600460008373ffffffffffffffffffffffffffffffffffffffff1673ffffffffffffffffffffffffffffffffffffffff16815260200190815260200160002060006101000a81548160ff0219169083151502179055506002600860008282546127309190613d93565b9250508190555050565b6000600960016009805490506127509190613d93565b8154811061276157612760613c41565b5b906000526020600020906005020160040160009054906101000a900460ff16905090565b6000600560008373ffffffffffffffffffffffffffffffffffffffff1673ffffffffffffffffffffffffffffffffffffffff16815260200190815260200160002060009054906101000a900460ff16806128285750600460008373ffffffffffffffffffffffffffffffffffffffff1673ffffffffffffffffffffffffffffffffffffffff16815260200190815260200160002060009054906101000a900460ff165b8061287c5750600360008373ffffffffffffffffffffffffffffffffffffffff1673ffffffffffffffffffffffffffffffffffffffff16815260200190815260200160002060009054906101000a900460ff165b806128d05750600160008373ffffffffffffffffffffffffffffffffffffffff1673ffffffffffffffffffffffffffffffffffffffff16815260200190815260200160002060009054906101000a900460ff165b156128de57600190506128e3565b600090505b919050565b600160003373ffffffffffffffffffffffffffffffffffffffff1673ffffffffffffffffffffffffffffffffffffffff16815260200190815260200160002060009054906101000a900460ff1661296b576040517faf14e1e600000000000000000000000000000000000000000000000000000000815260040160405180910390fd5b600560008373ffffffffffffffffffffffffffffffffffffffff1673ffffffffffffffffffffffffffffffffffffffff16815260200190815260200160002060009054906101000a900460ff16156129ef576040517f810074be00000000000000000000000000000000000000000000000000000000815260040160405180910390fd5b6129f882613044565b6001600560008473ffffffffffffffffffffffffffffffffffffffff1673ffffffffffffffffffffffffffffffffffffffff16815260200190815260200160002060006101000a81548160ff021916908315150217905550600160086000828254612a639190613c9f565b92505081905550600660405180604001604052808473ffffffffffffffffffffffffffffffffffffffff16815260200183815250908060018154018082558091505060019003906000526020600020906002020160009091909190915060008201518160000160006101000a81548173ffffffffffffffffffffffffffffffffffffffff021916908373ffffffffffffffffffffffffffffffffffffffff1602179055506020820151816001019081612b1c9190614112565b5050506001600680549050612b319190613d93565b600760008473ffffffffffffffffffffffffffffffffffffffff1673ffffffffffffffffffffffffffffffffffffffff168152602001908152602001600020819055505050565b600160003373ffffffffffffffffffffffffffffffffffffffff1673ffffffffffffffffffffffffffffffffffffffff16815260200190815260200160002060009054906101000a900460ff16612bfb576040517faf14e1e600000000000000000000000000000000000000000000000000000000815260040160405180910390fd5b600073ffffffffffffffffffffffffffffffffffffffff1660008054906101000a900473ffffffffffffffffffffffffffffffffffffffff1673ffffffffffffffffffffffffffffffffffffffff1614612c81576040517fff72304a00000000000000000000000000000000000000000000000000000000815260040160405180910390fd5b806000806101000a81548173ffffffffffffffffffffffffffffffffffffffff021916908373ffffffffffffffffffffffffffffffffffffffff16021790555050565b60606006805480602002602001604051908101604052809291908181526020016000905b82821015612e0257838290600052602060002090600202016040518060400160405290816000820160009054906101000a900473ffffffffffffffffffffffffffffffffffffffff1673ffffffffffffffffffffffffffffffffffffffff1673ffffffffffffffffffffffffffffffffffffffff168152602001600182018054612d7190613d62565b80601f0160208091040260200160405190810160405280929190818152602001828054612d9d90613d62565b8015612dea5780601f10612dbf57610100808354040283529160200191612dea565b820191906000526020600020905b815481529060010190602001808311612dcd57829003601f168201915b50505050508152505081526020019060010190612ce8565b50505050905090565b600160003373ffffffffffffffffffffffffffffffffffffffff1673ffffffffffffffffffffffffffffffffffffffff16815260200190815260200160002060009054906101000a900460ff16612e8e576040517faf14e1e600000000000000000000000000000000000000000000000000000000815260040160405180910390fd5b600073ffffffffffffffffffffffffffffffffffffffff168173ffffffffffffffffffffffffffffffffffffffff1603612ef4576040517f4b054c8200000000000000000000000000000000000000000000000000000000815260040160405180910390fd5b600160008273ffffffffffffffffffffffffffffffffffffffff1673ffffffffffffffffffffffffffffffffffffffff16815260200190815260200160002060009054906101000a900460ff1615612f78576040517f1318d88500000000000000000000000000000000000000000000000000000000815260040160405180910390fd5b612f8181613044565b60018060008373ffffffffffffffffffffffffffffffffffffffff1673ffffffffffffffffffffffffffffffffffffffff16815260200190815260200160002060006101000a81548160ff02191690831515021790555060026000815480929190612feb906140a0565b91905055506005600860008282546130039190613c9f565b925050819055507fffc7a5dffad5a52afd8a72e2b4b51c09008940c99cf0d84ce9e72ce42e8dbc328160405161303991906140f7565b60405180910390a150565b60008054906101000a900473ffffffffffffffffffffffffffffffffffffffff1673ffffffffffffffffffffffffffffffffffffffff166347c469b3826040518263ffffffff1660e01b815260040161309d91906140f7565b600060405180830381600087803b1580156130b757600080fd5b505af11580156130cb573d6000803e3d6000fd5b5050505050565b5080546130de90613d62565b6000825580601f106130f0575061310f565b601f01602090049060005260206000209081019061310e919061319c565b5b50565b82805482825590600052602060002090810192821561318b579160200282015b8281111561318a5782518260006101000a81548173ffffffffffffffffffffffffffffffffffffffff021916908373ffffffffffffffffffffffffffffffffffffffff16021790555091602001919060010190613132565b5b509050613198919061319c565b5090565b5b808211156131b557600081600090555060010161319d565b5090565b6000604051905090565b600080fd5b600080fd5b6000819050919050565b6131e0816131cd565b81146131eb57600080fd5b50565b6000813590506131fd816131d7565b92915050565b600060208284031215613219576132186131c3565b5b6000613227848285016131ee565b91505092915050565b600081519050919050565b600082825260208201905092915050565b6000819050602082019050919050565b613265816131cd565b82525050565b600081519050919050565b600082825260208201905092915050565b60005b838110156132a557808201518184015260208101905061328a565b60008484015250505050565b6000601f19601f8301169050919050565b60006132cd8261326b565b6132d78185613276565b93506132e7818560208601613287565b6132f0816132b1565b840191505092915050565b600081519050919050565b600082825260208201905092915050565b6000819050602082019050919050565b600073ffffffffffffffffffffffffffffffffffffffff82169050919050565b600061335282613327565b9050919050565b61336281613347565b82525050565b60006133748383613359565b60208301905092915050565b6000602082019050919050565b6000613398826132fb565b6133a28185613306565b93506133ad83613317565b8060005b838110156133de5781516133c58882613368565b97506133d083613380565b9250506001810190506133b1565b5085935050505092915050565b60008115159050919050565b613400816133eb565b82525050565b600060a08301600083015161341e600086018261325c565b506020830151613431602086018261325c565b506040830151848203604086015261344982826132c2565b91505060608301518482036060860152613463828261338d565b915050608083015161347860808601826133f7565b508091505092915050565b600061348f8383613406565b905092915050565b6000602082019050919050565b60006134af82613230565b6134b9818561323b565b9350836020820285016134cb8561324c565b8060005b8581101561350757848403895281516134e88582613483565b94506134f383613497565b925060208a019950506001810190506134cf565b50829750879550505050505092915050565b6000602082019050818103600083015261353381846134a4565b905092915050565b61354481613347565b811461354f57600080fd5b50565b6000813590506135618161353b565b92915050565b60006020828403121561357d5761357c6131c3565b5b600061358b84828501613552565b91505092915050565b61359d816133eb565b82525050565b60006020820190506135b86000830184613594565b92915050565b6135c7816131cd565b82525050565b60006020820190506135e260008301846135be565b92915050565b600080fd5b600080fd5b600080fd5b60008083601f84011261360d5761360c6135e8565b5b8235905067ffffffffffffffff81111561362a576136296135ed565b5b602083019150836001820283011115613646576136456135f2565b5b9250929050565b60008060208385031215613664576136636131c3565b5b600083013567ffffffffffffffff811115613682576136816131c8565b5b61368e858286016135f7565b92509250509250929050565b60008083601f8401126136b0576136af6135e8565b5b8235905067ffffffffffffffff8111156136cd576136cc6135ed565b5b6020830191508360208202830111156136e9576136e86135f2565b5b9250929050565b60008083601f840112613706576137056135e8565b5b8235905067ffffffffffffffff811115613723576137226135ed565b5b60208301915083602082028301111561373f5761373e6135f2565b5b9250929050565b600080600080604085870312156137605761375f6131c3565b5b600085013567ffffffffffffffff81111561377e5761377d6131c8565b5b61378a8782880161369a565b9450945050602085013567ffffffffffffffff8111156137ad576137ac6131c8565b5b6137b9878288016136f0565b925092505092959194509250565b600081519050919050565b600082825260208201905092915050565b6000819050602082019050919050565b600060e083016000830151848203600086015261381082826132c2565b9150506020830151613825602086018261325c565b506040830151613838604086018261325c565b50606083015161384b606086018261325c565b50608083015161385e608086018261325c565b5060a083015161387160a08601826133f7565b5060c083015161388460c086018261325c565b508091505092915050565b600061389b83836137f3565b905092915050565b6000602082019050919050565b60006138bb826137c7565b6138c581856137d2565b9350836020820285016138d7856137e3565b8060005b8581101561391357848403895281516138f4858261388f565b94506138ff836138a3565b925060208a019950506001810190506138db565b50829750879550505050505092915050565b6000602082019050818103600083015261393f81846138b0565b905092915050565b6000806020838503121561395e5761395d6131c3565b5b600083013567ffffffffffffffff81111561397c5761397b6131c8565b5b6139888582860161369a565b92509250509250929050565b600080fd5b7f4e487b7100000000000000000000000000000000000000000000000000000000600052604160045260246000fd5b6139d1826132b1565b810181811067ffffffffffffffff821117156139f0576139ef613999565b5b80604052505050565b6000613a036131b9565b9050613a0f82826139c8565b919050565b600067ffffffffffffffff821115613a2f57613a2e613999565b5b613a38826132b1565b9050602081019050919050565b82818337600083830152505050565b6000613a67613a6284613a14565b6139f9565b905082815260208101848484011115613a8357613a82613994565b5b613a8e848285613a45565b509392505050565b600082601f830112613aab57613aaa6135e8565b5b8135613abb848260208601613a54565b91505092915050565b60008060408385031215613adb57613ada6131c3565b5b6000613ae985828601613552565b925050602083013567ffffffffffffffff811115613b0a57613b096131c8565b5b613b1685828601613a96565b9150509250929050565b600081519050919050565b600082825260208201905092915050565b6000819050602082019050919050565b6000604083016000830151613b646000860182613359565b5060208301518482036020860152613b7c82826132c2565b9150508091505092915050565b6000613b958383613b4c565b905092915050565b6000602082019050919050565b6000613bb582613b20565b613bbf8185613b2b565b935083602082028501613bd185613b3c565b8060005b85811015613c0d5784840389528151613bee8582613b89565b9450613bf983613b9d565b925060208a01995050600181019050613bd5565b50829750879550505050505092915050565b60006020820190508181036000830152613c398184613baa565b905092915050565b7f4e487b7100000000000000000000000000000000000000000000000000000000600052603260045260246000fd5b7f4e487b7100000000000000000000000000000000000000000000000000000000600052601160045260246000fd5b6000613caa826131cd565b9150613cb5836131cd565b9250828201905080821115613ccd57613ccc613c70565b5b92915050565b7f4e487b7100000000000000000000000000000000000000000000000000000000600052601260045260246000fd5b6000613d0d826131cd565b9150613d18836131cd565b925082613d2857613d27613cd3565b5b828204905092915050565b7f4e487b7100000000000000000000000000000000000000000000000000000000600052602260045260246000fd5b60006002820490506001821680613d7a57607f821691505b602082108103613d8d57613d8c613d33565b5b50919050565b6000613d9e826131cd565b9150613da9836131cd565b9250828203905081811115613dc157613dc0613c70565b5b92915050565b600081549050613dd681613d62565b9050919050565b60008190508160005260206000209050919050565b60006020601f8301049050919050565b600082821b905092915050565b600060088302613e3f7fffffffffffffffffffffffffffffffffffffffffffffffffffffffffffffffff82613e02565b613e498683613e02565b95508019841693508086168417925050509392505050565b6000819050919050565b6000613e86613e81613e7c846131cd565b613e61565b6131cd565b9050919050565b6000819050919050565b613ea083613e6b565b613eb4613eac82613e8d565b848454613e0f565b825550505050565b600090565b613ec9613ebc565b613ed4818484613e97565b505050565b5b81811015613ef857613eed600082613ec1565b600181019050613eda565b5050565b601f821115613f3d57613f0e81613ddd565b613f1784613df2565b81016020851015613f26578190505b613f3a613f3285613df2565b830182613ed9565b50505b505050565b600082821c905092915050565b6000613f6060001984600802613f42565b1980831691505092915050565b6000613f798383613f4f565b9150826002028217905092915050565b818103613f9757505061406f565b613fa082613dc7565b67ffffffffffffffff811115613fb957613fb8613999565b5b613fc38254613d62565b613fce828285613efc565b6000601f831160018114613ffd5760008415613feb578287015490505b613ff58582613f6d565b865550614068565b601f19841661400b87613ddd565b965061401686613ddd565b60005b8281101561403e57848901548255600182019150600185019450602081019050614019565b8683101561405b5784890154614057601f891682613f4f565b8355505b6001600288020188555050505b5050505050505b565b7f4e487b7100000000000000000000000000000000000000000000000000000000600052603160045260246000fd5b60006140ab826131cd565b91507fffffffffffffffffffffffffffffffffffffffffffffffffffffffffffffffff82036140dd576140dc613c70565b5b600182019050919050565b6140f181613347565b82525050565b600060208201905061410c60008301846140e8565b92915050565b61411b8261326b565b67ffffffffffffffff81111561413457614133613999565b5b61413e8254613d62565b614149828285613efc565b600060209050601f83116001811461417c576000841561416a578287015190505b6141748582613f6d565b8655506141dc565b601f19841661418a86613ddd565b60005b828110156141b25784890151825560018201915060208501945060208101905061418d565b868310156141cf57848901516141cb601f891682613f4f565b8355505b6001600288020188555050505b505050505050565b600082825260208201905092915050565b600061420183856141e4565b935061420e838584613a45565b614217836132b1565b840190509392505050565b6000604082019050818103600083015261423d8185876141f5565b905061424c60208301846135be565b949350505050565b600080fd5b600080fd5b600080fd5b600080833560016020038436030381126142805761427f614254565b5b80840192508235915067ffffffffffffffff8211156142a2576142a1614259565b5b6020830192506001820236038313156142be576142bd61425e565b5b509250929050565b60006142d1826131cd565b9150600082036142e4576142e3613c70565b5b60018203905091905056fea26469706673582212205a49ca3c5eed6f319cf06f16f1cf1b6ef5f68cbbbe33bd9bf23b58d174721efb64736f6c63430008140033","linkReferences":{}},"methodIdentifiers":{"addBoard(address)":"10a1c573","addMember(address,string)":"c127c247","addMultipleBoard(address[])":"8d2bd27b","addMultipleMembers(address[],string[])":"608992a5","addPresident(address)":"ec3d854b","addVP(address)":"457c09ba","checkIn()":"183ff085","endMeeting()":"70af1dd2","getMeetings()":"0477575a","getNumberOfMeetingsAttended(address)":"323e39a2","getProposals()":"62564c48","isCheckedIn(address)":"30cf203a","isMeetingOpen()":"9eddefd7","isMember(address)":"a230c524","isPresident(address)":"8f683b7b","membersList()":"dd5042f4","newMeeting(string)":"506e8481","newProposal(string)":"4f24186a","removeBoard(address)":"957f13f4","removeMember(address)":"0b1ca49a","removePresident(address)":"6f195d09","removeVP(address)":"428dde87","setFaucet(address)":"d8b31c77","voteForProposal(uint256)":"045c6ce0"},"id":25}