{"abi":[{"type":"constructor","inputs":[],"stateMutability":"nonpayable"},{"type":"function","name":"addBoard","inputs":[{"name":"_newBoard","type":"address","internalType":"address"}],"outputs":[],"stateMutability":"nonpayable"},{"type":"function","name":"addMember","inputs":[{"name":"_newMember","type":"address","internalType":"address"},{"name":"_name","type":"string","internalType":"string"}],"outputs":[],"stateMutability":"nonpayable"},{"type":"function","name":"addMultipleBoard","inputs":[{"name":"_newBoardMembers","type":"address[]","internalType":"address[]"}],"outputs":[],"stateMutability":"nonpayable"},{"type":"function","name":"addMultipleMembers","inputs":[{"name":"_newMembers","type":"tuple[]","internalType":"struct DAO.Member[]","components":[{"name":"memberAddress","type":"address","internalType":"address"},{"name":"name","type":"string","internalType":"string"}]}],"outputs":[],"stateMutability":"nonpayable"},{"type":"function","name":"addPresident","inputs":[{"name":"_newPresident","type":"address","internalType":"address"}],"outputs":[],"stateMutability":"nonpayable"},{"type":"function","name":"addVP","inputs":[{"name":"_newVP","type":"address","internalType":"address"}],"outputs":[],"stateMutability":"nonpayable"},{"type":"function","name":"checkIn","inputs":[],"outputs":[],"stateMutability":"nonpayable"},{"type":"function","name":"endMeeting","inputs":[],"outputs":[],"stateMutability":"nonpayable"},{"type":"function","name":"getMeetings","inputs":[],"outputs":[{"name":"","type":"tuple[]","internalType":"struct DAO.Meeting[]","components":[{"name":"blockStarted","type":"uint256","internalType":"uint256"},{"name":"timestampStarted","type":"uint256","internalType":"uint256"},{"name":"topic","type":"string","internalType":"string"},{"name":"attendees","type":"address[]","internalType":"address[]"},{"name":"open","type":"bool","internalType":"bool"}]}],"stateMutability":"view"},{"type":"function","name":"getNumberOfMeetingsAttended","inputs":[{"name":"_member","type":"address","internalType":"address"}],"outputs":[{"name":"","type":"uint256","internalType":"uint256"}],"stateMutability":"view"},{"type":"function","name":"getProposals","inputs":[],"outputs":[{"name":"","type":"tuple[]","internalType":"struct DAO.Proposal[]","components":[{"name":"proposal","type":"string","internalType":"string"},{"name":"timeCreated","type":"uint256","internalType":"uint256"},{"name":"startBlock","type":"uint256","internalType":"uint256"},{"name":"endBlock","type":"uint256","internalType":"uint256"},{"name":"votesFor","type":"uint256","internalType":"uint256"},{"name":"passed","type":"bool","internalType":"bool"},{"name":"index","type":"uint256","internalType":"uint256"}]}],"stateMutability":"view"},{"type":"function","name":"isCheckedIn","inputs":[{"name":"_member","type":"address","internalType":"address"}],"outputs":[{"name":"","type":"bool","internalType":"bool"}],"stateMutability":"view"},{"type":"function","name":"isMeetingOpen","inputs":[],"outputs":[{"name":"","type":"bool","internalType":"bool"}],"stateMutability":"view"},{"type":"function","name":"isMember","inputs":[{"name":"_member","type":"address","internalType":"address"}],"outputs":[{"name":"","type":"bool","internalType":"bool"}],"stateMutability":"view"},{"type":"function","name":"isPresident","inputs":[{"name":"_president","type":"address","internalType":"address"}],"outputs":[{"name":"","type":"bool","internalType":"bool"}],"stateMutability":"view"},{"type":"function","name":"membersList","inputs":[],"outputs":[{"name":"","type":"tuple[]","internalType":"struct DAO.Member[]","components":[{"name":"memberAddress","type":"address","internalType":"address"},{"name":"name","type":"string","internalType":"string"}]}],"stateMutability":"view"},{"type":"function","name":"newMeeting","inputs":[{"name":"_topic","type":"string","internalType":"string"}],"outputs":[],"stateMutability":"nonpayable"},{"type":"function","name":"newProposal","inputs":[{"name":"_proposal","type":"string","internalType":"string"}],"outputs":[],"stateMutability":"nonpayable"},{"type":"function","name":"removeBoard","inputs":[{"name":"_board","type":"address","internalType":"address"}],"outputs":[],"stateMutability":"nonpayable"},{"type":"function","name":"removeMember","inputs":[{"name":"_member","type":"address","internalType":"address"}],"outputs":[],"stateMutability":"nonpayable"},{"type":"function","name":"removePresident","inputs":[{"name":"_president","type":"address","internalType":"address"}],"outputs":[],"stateMutability":"nonpayable"},{"type":"function","name":"removeVP","inputs":[{"name":"_vp","type":"address","internalType":"address"}],"outputs":[],"stateMutability":"nonpayable"},{"type":"function","name":"setFaucet","inputs":[{"name":"_faucet","type":"address","internalType":"address"}],"outputs":[],"stateMutability":"nonpayable"},{"type":"function","name":"voteForProposal","inputs":[{"name":"_index","type":"uint256","internalType":"uint256"}],"outputs":[],"stateMutability":"nonpayable"},{"type":"event","name":"NewPresident","inputs":[{"name":"newPresident","type":"address","indexed":false,"internalType":"address"}],"anonymous":false},{"type":"event","name":"NewProposal","inputs":[{"name":"proposal","type":"string","indexed":false,"internalType":"string"},{"name":"index","type":"uint256","indexed":false,"internalType":"uint256"}],"anonymous":false},{"type":"event","name":"NewVP","inputs":[{"name":"newVP","type":"address","indexed":false,"internalType":"address"}],"anonymous":false},{"type":"event","name":"ProposalPassed","inputs":[{"name":"index","type":"uint256","indexed":false,"internalType":"uint256"}],"anonymous":false},{"type":"error","name":"AddressCantBeZero","inputs":[]},{"type":"error","name":"AlreadyBoard","inputs":[]},{"type":"error","name":"AlreadyMember","inputs":[]},{"type":"error","name":"AlreadyPresident","inputs":[]},{"type":"error","name":"AlreadyVP","inputs":[]},{"type":"error","name":"AlreadyVoted","inputs":[]},{"type":"error","name":"FaucetAlreadySet","inputs":[]},{"type":"error","name":"MeetingNotOpen","inputs":[]},{"type":"error","name":"MustHaveOnePresident","inputs":[]},{"type":"error","name":"NotBoard","inputs":[]},{"type":"error","name":"NotMember","inputs":[]},{"type":"error","name":"NotPresident","inputs":[]},{"type":"error","name":"NotVP","inputs":[]},{"type":"error","name":"OnlyMember","inputs":[]},{"type":"error","name":"OnlyPresident","inputs":[]},{"type":"error","name":"ProposalAlreadyPassed","inputs":[]},{"type":"error","name":"ProposalEnded","inputs":[]}],"bytecode":{"object":"0x6080604052600080546001600160a01b031916905534801561002057600080fd5b503360009081526001602081905260408220805460ff191682179055600255600880546005929061005290849061008f565b90915550506040513381527fffc7a5dffad5a52afd8a72e2b4b51c09008940c99cf0d84ce9e72ce42e8dbc329060200160405180910390a16100b6565b808201808211156100b057634e487b7160e01b600052601160045260246000fd5b92915050565b61240e806100c56000396000f3fe608060405234801561001057600080fd5b50600436106101585760003560e01c806362564c48116100c35780639eddefd71161007c5780639eddefd7146102f9578063a230c52414610301578063c127c24714610314578063d8b31c7714610327578063dd5042f41461033a578063ec3d854b1461034f57600080fd5b806362564c48146102775780636f195d091461028c57806370af1dd21461029f5780638d2bd27b146102a75780638f683b7b146102ba578063957f13f4146102e657600080fd5b806330cf203a1161011557806330cf203a146101d1578063323e39a2146101f4578063428dde871461022b578063457c09ba1461023e5780634f24186a14610251578063506e84811461026457600080fd5b806301306fc21461015d578063045c6ce0146101725780630477575a146101855780630b1ca49a146101a357806310a1c573146101b6578063183ff085146101c9575b600080fd5b61017061016b366004611c43565b610362565b005b610170610180366004611c85565b6105a2565b61018d610808565b60405161019a9190611ce4565b60405180910390f35b6101706101b1366004611dd7565b610981565b6101706101c4366004611dd7565b610b16565b610170610bc7565b6101e46101df366004611dd7565b610cdf565b604051901515815260200161019a565b61021d610202366004611dd7565b6001600160a01b03166000908152600a602052604090205490565b60405190815260200161019a565b610170610239366004611dd7565b610d82565b61017061024c366004611dd7565b610e20565b61017061025f366004611df9565b610f10565b610170610272366004611df9565b6110ac565b61027f6111b3565b60405161019a9190611e6b565b61017061029a366004611dd7565b6112e2565b6101706113b4565b6101706102b5366004611c43565b61144d565b6101e46102c8366004611dd7565b6001600160a01b031660009081526001602052604090205460ff1690565b6101706102f4366004611dd7565b611547565b6101e46115e3565b6101e461030f366004611dd7565b611623565b610170610322366004611f2c565b6116c2565b610170610335366004611dd7565b611842565b6103426118c1565b60405161019a9190611fee565b61017061035d366004611dd7565b6119be565b3360009081526001602052604090205460ff166103925760405163578a70f360e11b815260040160405180910390fd5b60005b8181101561059d5760008383838181106103b1576103b161205d565b90506020028101906103c39190612073565b6103d1906020810190611dd7565b905060008484848181106103e7576103e761205d565b90506020028101906103f99190612073565b610407906020810190612093565b8080601f01602080910402602001604051908101604052809392919081815260200183838082843760009201829052506001600160a01b038716815260056020526040902054939450505060ff909116159050610477576040516340803a5f60e11b815260040160405180910390fd5b61048082611ae1565b6001600160a01b0382166000908152600560205260408120805460ff1916600190811790915560088054919290916104b99084906120f0565b9091555050604080518082019091526001600160a01b038381168252602082018381526006805460018101825560009190915283517ff652222313e28459528d920b65115c16c04f3efc82aaedc97be59f3f377c0d3f600290920291820180546001600160a01b0319169190941617835590517ff652222313e28459528d920b65115c16c04f3efc82aaedc97be59f3f377c0d409091019061055b9082612191565b505060065461056d9150600190612251565b6001600160a01b03909216600090815260076020526040902091909155508061059581612264565b915050610395565b505050565b3360009081526005602052604090205460ff16806105cf57503360009081526004602052604090205460ff165b806105e957503360009081526003602052604090205460ff165b8061060357503360009081526001602052604090205460ff165b156107ec576000600b828154811061061d5761061d61205d565b906000526020600020906007020190504381600301541015610652576040516348f2885560e01b815260040160405180910390fd5b6000828152600c6020908152604080832033845290915290205460ff161561068d57604051637c9a1cf960e01b815260040160405180910390fd5b600581015460ff16156106b3576040516365cb810960e11b815260040160405180910390fd5b3360009081526001602052604090205460ff16156106eb5760058160040160008282546106e091906120f0565b909155506107609050565b3360009081526003602052604090205460ff16156107185760038160040160008282546106e091906120f0565b3360009081526004602052604090205460ff16156107455760028160040160008282546106e091906120f0565b600181600401600082825461075a91906120f0565b90915550505b6000828152600c602090815260408083203384529091529020805460ff191660011790556008546107939060029061227d565b816004015411156107e85760058101805460ff191660011790556040517fe36f8b7448daff4a52e2945db0d1d7a436279cc1d527a45c27835dcbd27f336d906107df9084815260200190565b60405180910390a15b5050565b604051630941e4f160e31b815260040160405180910390fd5b50565b60606009805480602002602001604051908101604052809291908181526020016000905b8282101561097857838290600052602060002090600502016040518060a0016040529081600082015481526020016001820154815260200160028201805461087390612109565b80601f016020809104026020016040519081016040528092919081815260200182805461089f90612109565b80156108ec5780601f106108c1576101008083540402835291602001916108ec565b820191906000526020600020905b8154815290600101906020018083116108cf57829003601f168201915b505050505081526020016003820180548060200260200160405190810160405280929190818152602001828054801561094e57602002820191906000526020600020905b81546001600160a01b03168152600190910190602001808311610930575b50505091835250506004919091015460ff161515602091820152908252600192909201910161082c565b50505050905090565b3360009081526001602052604090205460ff166109b15760405163578a70f360e11b815260040160405180910390fd5b6001600160a01b03811660009081526005602052604090205460ff166109ea5760405163148fe22160e11b815260040160405180910390fd5b6001600160a01b0381166000908152600560205260408120805460ff191690556008805460019290610a1d908490612251565b909155505060068054610a3290600190612251565b81548110610a4257610a4261205d565b9060005260206000209060020201600660076000846001600160a01b03166001600160a01b031681526020019081526020016000205481548110610a8857610a8861205d565b60009182526020909120825460029092020180546001600160a01b0319166001600160a01b03909216919091178155600180820190610ac99084018261229f565b509050506006805480610ade57610ade612372565b60008281526020812060026000199093019283020180546001600160a01b031916815590610b0f6001830182611b43565b5050905550565b3360009081526001602052604090205460ff16610b465760405163578a70f360e11b815260040160405180910390fd5b6001600160a01b03811660009081526004602052604090205460ff1615610b805760405163268ba82160e21b815260040160405180910390fd5b610b8981611ae1565b6001600160a01b0381166000908152600460205260408120805460ff191660011790556008805460029290610bbf9084906120f0565b909155505050565b3360009081526005602052604090205460ff1680610bf457503360009081526004602052604090205460ff165b80610c0e57503360009081526003602052604090205460ff165b80610c2857503360009081526001602052604090205460ff165b156107ec576009805460009190610c4190600190612251565b81548110610c5157610c5161205d565b60009182526020909120600590910201600481015490915060ff16610c89576040516341e6a24360e01b815260040160405180910390fd5b600381018054600181810183556000928352602080842090920180546001600160a01b031916339081179091558352600a909152604090912054610ccc916120f0565b336000908152600a602052604090205550565b600980546000918291610cf490600190612251565b81548110610d0457610d0461205d565b9060005260206000209060050201905060005b6003820154811015610d7857836001600160a01b0316826003018281548110610d4257610d4261205d565b6000918252602090912001546001600160a01b031603610d66575060019392505050565b80610d7081612264565b915050610d17565b5060009392505050565b3360009081526001602052604090205460ff16610db25760405163578a70f360e11b815260040160405180910390fd5b6001600160a01b03811660009081526003602052604090205460ff16610deb57604051630207316b60e21b815260040160405180910390fd5b6001600160a01b03811660009081526003602081905260408220805460ff191690556008805491929091610bbf908490612251565b3360009081526001602052604090205460ff16610e505760405163578a70f360e11b815260040160405180910390fd5b6001600160a01b03811660009081526003602052604090205460ff1615610e8a576040516318e039cd60e31b815260040160405180910390fd5b610e9381611ae1565b6001600160a01b03811660009081526003602081905260408220805460ff191660011790556008805491929091610ecb9084906120f0565b90915550506040516001600160a01b03821681527f2118350a1fc2ad62657a43f98a161bd93d736cc52eaacee589d4fcc2ee3ac1dd906020015b60405180910390a150565b3360009081526005602052604090205460ff1680610f3d57503360009081526004602052604090205460ff165b80610f5757503360009081526003602052604090205460ff165b80610f7157503360009081526001602052604090205460ff165b156107ec57604080516101006020601f8501819004028201810190925260e08101838152600b9282919086908690819085018382808284376000920191909152505050908252504260208201524360408201819052606090910190610fda9062093a80906120f0565b81526000602080830182905260408301829052600b54606090930192909252835460018101855593815220815191926007020190819061101a9082612191565b50602082015160018281019190915560408301516002830155606083015160038301556080830151600483015560a083015160058301805460ff191691151591909117905560c090920151600690910155600b547f771bd5157dc62782f1dc1d883d325ee20636daf881286a9f2d934c3ec3392e8a918491849161109d91612251565b6040516107df93929190612388565b3360009081526001602052604090205460ff166110dc5760405163578a70f360e11b815260040160405180910390fd5b606060096040518060a0016040528043815260200142815260200185858080601f0160208091040260200160405190810160405280939291908181526020018383808284376000920182905250938552505050602080830186905260016040938401819052855480820187559583529181902084516005909602019485558301519084015581015190919060028201906111769082612191565b5060608201518051611192916003840191602090910190611b7d565b50608091909101516004909101805460ff1916911515919091179055505050565b6060600b805480602002602001604051908101604052809291908181526020016000905b8282101561097857838290600052602060002090600702016040518060e001604052908160008201805461120a90612109565b80601f016020809104026020016040519081016040528092919081815260200182805461123690612109565b80156112835780601f1061125857610100808354040283529160200191611283565b820191906000526020600020905b81548152906001019060200180831161126657829003601f168201915b5050509183525050600182810154602080840191909152600284015460408401526003840154606084015260048401546080840152600584015460ff16151560a084015260069093015460c090920191909152918352920191016111d7565b3360009081526001602052604090205460ff166113125760405163578a70f360e11b815260040160405180910390fd5b6001600160a01b03811660009081526001602052604090205460ff1661134b576040516304c8245360e11b815260040160405180910390fd5b60025460010361136e5760405163ab76db8b60e01b815260040160405180910390fd5b6001600160a01b0381166000908152600160205260408120805460ff19169055600280549161139c836123c1565b9190505550600560086000828254610bbf9190612251565b3360009081526001602052604090205460ff166113e45760405163578a70f360e11b815260040160405180910390fd5b60098054600091906113f890600190612251565b815481106114085761140861205d565b60009182526020909120600590910201600481015490915060ff16611440576040516341e6a24360e01b815260040160405180910390fd5b600401805460ff19169055565b3360009081526001602052604090205460ff1661147d5760405163578a70f360e11b815260040160405180910390fd5b60005b8181101561059d57600083838381811061149c5761149c61205d565b90506020020160208101906114b19190611dd7565b6001600160a01b03811660009081526004602052604090205490915060ff16156114ee5760405163268ba82160e21b815260040160405180910390fd5b6114f781611ae1565b6001600160a01b0381166000908152600460205260408120805460ff19166001179055600880546002929061152d9084906120f0565b9091555082915061153f905081612264565b915050611480565b3360009081526001602052604090205460ff166115775760405163578a70f360e11b815260040160405180910390fd5b6001600160a01b03811660009081526004602052604090205460ff166115b057604051630b4fe0b960e11b815260040160405180910390fd5b6001600160a01b0381166000908152600460205260408120805460ff191690556008805460029290610bbf908490612251565b60098054600091906115f790600190612251565b815481106116075761160761205d565b600091825260209091206004600590920201015460ff16919050565b6001600160a01b03811660009081526005602052604081205460ff168061166257506001600160a01b03821660009081526004602052604090205460ff165b8061168557506001600160a01b03821660009081526003602052604090205460ff165b806116a857506001600160a01b03821660009081526001602052604090205460ff165b156116b557506001919050565b506000919050565b919050565b3360009081526001602052604090205460ff166116f25760405163578a70f360e11b815260040160405180910390fd5b6001600160a01b03821660009081526005602052604090205460ff161561172c576040516340803a5f60e11b815260040160405180910390fd5b61173582611ae1565b6001600160a01b0382166000908152600560205260408120805460ff19166001908117909155600880549192909161176e9084906120f0565b9091555050604080518082019091526001600160a01b038381168252602082018381526006805460018101825560009190915283517ff652222313e28459528d920b65115c16c04f3efc82aaedc97be59f3f377c0d3f600290920291820180546001600160a01b0319169190941617835590517ff652222313e28459528d920b65115c16c04f3efc82aaedc97be59f3f377c0d40909101906118109082612191565b50506006546118229150600190612251565b6001600160a01b0390921660009081526007602052604090209190915550565b3360009081526001602052604090205460ff166118725760405163578a70f360e11b815260040160405180910390fd5b6000546001600160a01b03161561189f5760405160016246e7db60e11b0319815260040160405180910390fd5b600080546001600160a01b0319166001600160a01b0392909216919091179055565b60606006805480602002602001604051908101604052809291908181526020016000905b82821015610978576000848152602090819020604080518082019091526002850290910180546001600160a01b03168252600181018054929391929184019161192d90612109565b80601f016020809104026020016040519081016040528092919081815260200182805461195990612109565b80156119a65780601f1061197b576101008083540402835291602001916119a6565b820191906000526020600020905b81548152906001019060200180831161198957829003601f168201915b505050505081525050815260200190600101906118e5565b3360009081526001602052604090205460ff166119ee5760405163578a70f360e11b815260040160405180910390fd5b6001600160a01b038116611a1557604051632582a64160e11b815260040160405180910390fd5b6001600160a01b03811660009081526001602052604090205460ff1615611a4f57604051631318d88560e01b815260040160405180910390fd5b611a5881611ae1565b6001600160a01b03811660009081526001602081905260408220805460ff191690911790556002805491611a8b83612264565b9190505550600560086000828254611aa391906120f0565b90915550506040516001600160a01b03821681527fffc7a5dffad5a52afd8a72e2b4b51c09008940c99cf0d84ce9e72ce42e8dbc3290602001610f05565b6000546040516347c469b360e01b81526001600160a01b038381166004830152909116906347c469b390602401600060405180830381600087803b158015611b2857600080fd5b505af1158015611b3c573d6000803e3d6000fd5b5050505050565b508054611b4f90612109565b6000825580601f10611b5f575050565b601f0160209004906000526020600020908101906108059190611be2565b828054828255906000526020600020908101928215611bd2579160200282015b82811115611bd257825182546001600160a01b0319166001600160a01b03909116178255602090920191600190910190611b9d565b50611bde929150611be2565b5090565b5b80821115611bde5760008155600101611be3565b60008083601f840112611c0957600080fd5b50813567ffffffffffffffff811115611c2157600080fd5b6020830191508360208260051b8501011115611c3c57600080fd5b9250929050565b60008060208385031215611c5657600080fd5b823567ffffffffffffffff811115611c6d57600080fd5b611c7985828601611bf7565b90969095509350505050565b600060208284031215611c9757600080fd5b5035919050565b6000815180845260005b81811015611cc457602081850181015186830182015201611ca8565b506000602082860101526020601f19601f83011685010191505092915050565b60006020808301818452808551808352604092508286019150828160051b8701018488016000805b84811015611db157603f198a8503018652825160a081518652898201518a87015288820151818a880152611d4282880182611c9e565b606084810151898303918a01919091528051808352908d019350908c01915085905b80821015611d8d5783516001600160a01b03168352928c0192918c019160019190910190611d64565b50506080928301511515969092019590955295880195935091870191600101611d0c565b50919998505050505050505050565b80356001600160a01b03811681146116bd57600080fd5b600060208284031215611de957600080fd5b611df282611dc0565b9392505050565b60008060208385031215611e0c57600080fd5b823567ffffffffffffffff80821115611e2457600080fd5b818501915085601f830112611e3857600080fd5b813581811115611e4757600080fd5b866020828501011115611e5957600080fd5b60209290920196919550909350505050565b60006020808301818452808551808352604092508286019150828160051b87010184880160005b83811015611f0857603f19898403018552815160e08151818652611eb882870182611c9e565b838b0151878c0152898401518a880152606080850151908801526080808501519088015260a08085015115159088015260c093840151939096019290925250509386019390860190600101611e92565b509098975050505050505050565b634e487b7160e01b600052604160045260246000fd5b60008060408385031215611f3f57600080fd5b611f4883611dc0565b9150602083013567ffffffffffffffff80821115611f6557600080fd5b818501915085601f830112611f7957600080fd5b813581811115611f8b57611f8b611f16565b604051601f8201601f19908116603f01168101908382118183101715611fb357611fb3611f16565b81604052828152886020848701011115611fcc57600080fd5b8260208601602083013760006020848301015280955050505050509250929050565b60006020808301818452808551808352604092508286019150828160051b87010184880160005b83811015611f0857888303603f19018552815180516001600160a01b0316845287015187840187905261204a87850182611c9e565b9588019593505090860190600101612015565b634e487b7160e01b600052603260045260246000fd5b60008235603e1983360301811261208957600080fd5b9190910192915050565b6000808335601e198436030181126120aa57600080fd5b83018035915067ffffffffffffffff8211156120c557600080fd5b602001915036819003821315611c3c57600080fd5b634e487b7160e01b600052601160045260246000fd5b80820180821115612103576121036120da565b92915050565b600181811c9082168061211d57607f821691505b60208210810361213d57634e487b7160e01b600052602260045260246000fd5b50919050565b601f82111561059d57600081815260208120601f850160051c8101602086101561216a5750805b601f850160051c820191505b8181101561218957828155600101612176565b505050505050565b815167ffffffffffffffff8111156121ab576121ab611f16565b6121bf816121b98454612109565b84612143565b602080601f8311600181146121f457600084156121dc5750858301515b600019600386901b1c1916600185901b178555612189565b600085815260208120601f198616915b8281101561222357888601518255948401946001909101908401612204565b50858210156122415787850151600019600388901b60f8161c191681555b5050505050600190811b01905550565b81810381811115612103576121036120da565b600060018201612276576122766120da565b5060010190565b60008261229a57634e487b7160e01b600052601260045260246000fd5b500490565b8181036122aa575050565b6122b48254612109565b67ffffffffffffffff8111156122cc576122cc611f16565b6122da816121b98454612109565b6000601f82116001811461230e57600083156122f65750848201545b600019600385901b1c1916600184901b178455611b3c565b600085815260209020601f19841690600086815260209020845b838110156123485782860154825560019586019590910190602001612328565b50858310156122415793015460001960f8600387901b161c19169092555050600190811b01905550565b634e487b7160e01b600052603160045260246000fd5b604081528260408201528284606083013760006060848301015260006060601f19601f8601168301019050826020830152949350505050565b6000816123d0576123d06120da565b50600019019056fea26469706673582212201140f010861fdd3e41314d51c1a46ec88a63c30b6414bf71e051fe7162ee0e2164736f6c63430008140033","linkReferences":{}},"methodIdentifiers":{"addBoard(address)":"10a1c573","addMember(address,string)":"c127c247","addMultipleBoard(address[])":"8d2bd27b","addMultipleMembers((address,string)[])":"01306fc2","addPresident(address)":"ec3d854b","addVP(address)":"457c09ba","checkIn()":"183ff085","endMeeting()":"70af1dd2","getMeetings()":"0477575a","getNumberOfMeetingsAttended(address)":"323e39a2","getProposals()":"62564c48","isCheckedIn(address)":"30cf203a","isMeetingOpen()":"9eddefd7","isMember(address)":"a230c524","isPresident(address)":"8f683b7b","membersList()":"dd5042f4","newMeeting(string)":"506e8481","newProposal(string)":"4f24186a","removeBoard(address)":"957f13f4","removeMember(address)":"0b1ca49a","removePresident(address)":"6f195d09","removeVP(address)":"428dde87","setFaucet(address)":"d8b31c77","voteForProposal(uint256)":"045c6ce0"},"id":20}