{"abi":[{"type":"constructor","inputs":[{"name":"_dao","type":"address","internalType":"address"}],"stateMutability":"nonpayable"},{"type":"fallback","stateMutability":"payable"},{"type":"receive","stateMutability":"payable"},{"type":"function","name":"changeFundingAmount","inputs":[{"name":"_newAmount","type":"uint256","internalType":"uint256"}],"outputs":[],"stateMutability":"nonpayable"},{"type":"function","name":"getDeafultFundingAmount","inputs":[],"outputs":[{"name":"","type":"uint256","internalType":"uint256"}],"stateMutability":"view"},{"type":"function","name":"initalFundingRequestFromDAO","inputs":[{"name":"_toFund","type":"address","internalType":"address"}],"outputs":[],"stateMutability":"nonpayable"},{"type":"function","name":"makeFundingRequest","inputs":[],"outputs":[],"stateMutability":"nonpayable"},{"type":"function","name":"withdrawFunds","inputs":[],"outputs":[],"stateMutability":"nonpayable"},{"type":"error","name":"InsufficientBankBalance","inputs":[]},{"type":"error","name":"OnlyDAO","inputs":[]},{"type":"error","name":"OnlyMember","inputs":[]},{"type":"error","name":"OnlyPresident","inputs":[]},{"type":"error","name":"TooSoonSinceLastRequest","inputs":[]},{"type":"error","name":"TransactionFailed","inputs":[{"name":"data","type":"bytes","internalType":"bytes"}]}],"bytecode":{"object":"0x60a0604052662386f26fc1000060015534801561001b57600080fd5b506040516106f93803806106f983398101604081905261003a9161004b565b6001600160a01b031660805261007b565b60006020828403121561005d57600080fd5b81516001600160a01b038116811461007457600080fd5b9392505050565b60805161064f6100aa6000396000818160f50152818161022d0152818161031b01526103e7015261064f6000f3fe60806040526004361061004b5760003560e01c806324600fc31461005457806347c469b31461006957806362a5e12314610089578063989ad860146100ab578063a2582a0f146100cb57005b3661005257005b005b34801561006057600080fd5b506100526100e0565b34801561007557600080fd5b50610052610084366004610539565b610200565b34801561009557600080fd5b5060015460405190815260200160405180910390f35b3480156100b757600080fd5b506100526100c6366004610569565b610306565b3480156100d757600080fd5b506100526103b0565b604051638f683b7b60e01b81523360048201527f00000000000000000000000000000000000000000000000000000000000000006001600160a01b031690638f683b7b90602401602060405180830381865afa158015610144573d6000803e3d6000fd5b505050506040513d601f19601f820116820180604052508101906101689190610582565b6101855760405163578a70f360e11b815260040160405180910390fd5b6040516000908190339047908381818185875af1925050503d80600081146101c9576040519150601f19603f3d011682016040523d82523d6000602084013e6101ce565b606091505b5091509150816101fc578060405163fe3c766760e01b81526004016101f391906105a4565b60405180910390fd5b5050565b600154471015610222576040516281fae560e11b815260040160405180910390fd5b336001600160a01b037f0000000000000000000000000000000000000000000000000000000000000000161461026b57604051630999802f60e41b815260040160405180910390fd5b600080826001600160a01b031660015460405160006040518083038185875af1925050503d80600081146102bb576040519150601f19603f3d011682016040523d82523d6000602084013e6102c0565b606091505b506001600160a01b0385166000908152602081905260409020439055909250905081610301578060405163fe3c766760e01b81526004016101f391906105a4565b505050565b604051638f683b7b60e01b81523360048201527f00000000000000000000000000000000000000000000000000000000000000006001600160a01b031690638f683b7b90602401602060405180830381865afa15801561036a573d6000803e3d6000fd5b505050506040513d601f19601f8201168201806040525081019061038e9190610582565b6103ab5760405163578a70f360e11b815260040160405180910390fd5b600155565b6001544710156103d2576040516281fae560e11b815260040160405180910390fd5b60405163288c314960e21b81523360048201527f00000000000000000000000000000000000000000000000000000000000000006001600160a01b03169063a230c52490602401602060405180830381865afa158015610436573d6000803e3d6000fd5b505050506040513d601f19601f8201168201806040525081019061045a9190610582565b61047757604051630941e4f160e31b815260040160405180910390fd5b33600090815260208190526040902054439061049790621baf80906105f2565b11156104b657604051631510a9f960e01b815260040160405180910390fd5b60015460405160009182913391908381818185875af1925050503d80600081146104fc576040519150601f19603f3d011682016040523d82523d6000602084013e610501565b606091505b503360009081526020819052604090204390559092509050816101fc578060405163fe3c766760e01b81526004016101f391906105a4565b60006020828403121561054b57600080fd5b81356001600160a01b038116811461056257600080fd5b9392505050565b60006020828403121561057b57600080fd5b5035919050565b60006020828403121561059457600080fd5b8151801515811461056257600080fd5b600060208083528351808285015260005b818110156105d1578581018301518582016040015282016105b5565b506000604082860101526040601f19601f8301168501019250505092915050565b8082018082111561061357634e487b7160e01b600052601160045260246000fd5b9291505056fea2646970667358221220826ef9ff0f2776e752ae0b2ea0f53962cdd80bc3c6758a923cfea49a0888d91964736f6c63430008140033","linkReferences":{}},"methodIdentifiers":{"changeFundingAmount(uint256)":"989ad860","getDeafultFundingAmount()":"62a5e123","initalFundingRequestFromDAO(address)":"47c469b3","makeFundingRequest()":"a2582a0f","withdrawFunds()":"24600fc3"},"id":21}